{"abi":[{"type":"constructor","inputs":[{"name":"_nodeRegistry","type":"address","internalType":"address"},{"name":"_modelRegistry","type":"address","internalType":"address"}],"stateMutability":"nonpayable"},{"type":"function","name":"modelRegistry","inputs":[],"outputs":[{"name":"","type":"address","internalType":"contract IModelRegistry"}],"stateMutability":"view"},{"type":"function","name":"nextRequestId","inputs":[],"outputs":[{"name":"","type":"uint256","internalType":"uint256"}],"stateMutability":"view"},{"type":"function","name":"nodeRegistry","inputs":[],"outputs":[{"name":"","type":"address","internalType":"contract INodeRegistry"}],"stateMutability":"view"},{"type":"function","name":"requestInference","inputs":[{"name":"modelId","type":"uint256","internalType":"uint256"}],"outputs":[],"stateMutability":"payable"},{"type":"function","name":"requests","inputs":[{"name":"","type":"uint256","internalType":"uint256"}],"outputs":[{"name":"user","type":"address","internalType":"address"},{"name":"modelId","type":"uint256","internalType":"uint256"},{"name":"paidAmount","type":"uint256","internalType":"uint256"},{"name":"fulfilled","type":"bool","internalType":"bool"}],"stateMutability":"view"},{"type":"function","name":"submitResult","inputs":[{"name":"requestId","type":"uint256","internalType":"uint256"}],"outputs":[],"stateMutability":"nonpayable"},{"type":"event","name":"InferenceFulfilled","inputs":[{"name":"requestId","type":"uint256","indexed":true,"internalType":"uint256"},{"name":"node","type":"address","indexed":true,"internalType":"address"}],"anonymous":false},{"type":"event","name":"InferenceRequested","inputs":[{"name":"requestId","type":"uint256","indexed":true,"internalType":"uint256"},{"name":"user","type":"address","indexed":true,"internalType":"address"},{"name":"modelId","type":"uint256","indexed":true,"internalType":"uint256"}],"anonymous":false}],"bytecode":{"object":"0x608060405234801561000f575f80fd5b5060405161089438038061089483398101604081905261002e91610079565b5f80546001600160a01b039384166001600160a01b031991821617909155600180549290931691161790556100aa565b80516001600160a01b0381168114610074575f80fd5b919050565b5f806040838503121561008a575f80fd5b6100938361005e565b91506100a16020840161005e565b90509250929050565b6107dd806100b75f395ff3fe608060405260043610610054575f3560e01c806321dc6429146100585780632ba36f78146100795780636a84a985146100b557806381d12c58146100d8578063b4fc3a4d14610153578063d9b5c4a514610166575b5f80fd5b348015610063575f80fd5b50610077610072366004610608565b610184565b005b348015610084575f80fd5b50600154610098906001600160a01b031681565b6040516001600160a01b0390911681526020015b60405180910390f35b3480156100c0575f80fd5b506100ca60025481565b6040519081526020016100ac565b3480156100e3575f80fd5b506101276100f2366004610608565b600360208190525f918252604090912080546001820154600283015492909301546001600160a01b0390911692919060ff1684565b604080516001600160a01b039095168552602085019390935291830152151560608201526080016100ac565b610077610161366004610608565b61049e565b348015610171575f80fd5b505f54610098906001600160a01b031681565b5f5460405163673448dd60e01b81523360048201526001600160a01b039091169063673448dd90602401602060405180830381865afa1580156101c9573d5f803e3d5ffd5b505050506040513d601f19601f820116820180604052508101906101ed919061061f565b6102325760405162461bcd60e51b81526020600482015260116024820152704e6f7420617070726f766564206e6f646560781b60448201526064015b60405180910390fd5b5f8181526003602081905260409091209081015460ff161561028a5760405162461bcd60e51b8152602060048201526011602482015270105b1c9958591e48199d5b199a5b1b1959607a1b6044820152606401610229565b60038101805460ff19166001908117909155805490820154604051631b4d85a560e21b81525f926001600160a01b031691636d361694916102d2919060040190815260200190565b5f60405180830381865afa1580156102ec573d5f803e3d5ffd5b505050506040513d5f823e601f3d908101601f191682016040526103139190810190610659565b505090505f600283600201546103299190610757565b90505f81846002015461033c9190610776565b6040519091505f90339084908381818185875af1925050503d805f811461037e576040519150601f19603f3d011682016040523d82523d5f602084013e610383565b606091505b50509050806103ca5760405162461bcd60e51b8152602060048201526013602482015272139bd919481c185e5b595b9d0819985a5b1959606a1b6044820152606401610229565b5f846001600160a01b0316836040515f6040518083038185875af1925050503d805f8114610413576040519150601f19603f3d011682016040523d82523d5f602084013e610418565b606091505b50509050806104695760405162461bcd60e51b815260206004820152601a60248201527f4d6f64656c206f776e6572207061796d656e74206661696c65640000000000006044820152606401610229565b604051339088907fbba2d40ecb2d07cc463f1001ec1d291ecda8c19bbaaa3225958a7fea21fef5dd905f90a350505050505050565b600154604051631b4d85a560e21b8152600481018390525f916001600160a01b031690636d361694906024015f60405180830381865afa1580156104e4573d5f803e3d5ffd5b505050506040513d5f823e601f3d908101601f1916820160405261050b9190810190610659565b509150508034146105525760405162461bcd60e51b8152602060048201526011602482015270125b98dbdc9c9958dd081c185e5b595b9d607a1b6044820152606401610229565b600280545f91826105628361078f565b9091555060408051608081018252338082526020808301888152348486019081525f60608601818152888252600394859052878220965187546001600160a01b0319166001600160a01b039091161787559251600187015590516002860155905193909101805460ff1916931515939093179092559151929350859284917fb5a263ff928905cedb5bf92e6c1cecc4951fc83b68be59ded3206c0a590fca0291a4505050565b5f60208284031215610618575f80fd5b5035919050565b5f6020828403121561062f575f80fd5b8151801515811461063e575f80fd5b9392505050565b634e487b7160e01b5f52604160045260245ffd5b5f805f6060848603121561066b575f80fd5b83516001600160a01b0381168114610681575f80fd5b809350506020808501519250604085015167ffffffffffffffff808211156106a7575f80fd5b818701915087601f8301126106ba575f80fd5b8151818111156106cc576106cc610645565b604051601f8201601f19908116603f011681019083821181831017156106f4576106f4610645565b816040528281528a8684870101111561070b575f80fd5b5f93505b8284101561072c578484018601518185018701529285019261070f565b5f8684830101528096505050505050509250925092565b634e487b7160e01b5f52601160045260245ffd5b5f8261077157634e487b7160e01b5f52601260045260245ffd5b500490565b8181038181111561078957610789610743565b92915050565b5f600182016107a0576107a0610743565b506001019056fea26469706673582212207c6ec120ae4916a9b1ab1d14c79bdac291d626dd1413dc64ea5223cf67cfa78964736f6c63430008140033","linkReferences":{}},"methodIdentifiers":{"modelRegistry()":"2ba36f78","nextRequestId()":"6a84a985","nodeRegistry()":"d9b5c4a5","requestInference(uint256)":"b4fc3a4d","requests(uint256)":"81d12c58","submitResult(uint256)":"21dc6429"},"id":0}