{"abi":[{"type":"constructor","inputs":[{"name":"_nodeRegistry","type":"address","internalType":"address"},{"name":"_modelRegistry","type":"address","internalType":"address"}],"stateMutability":"nonpayable"},{"type":"function","name":"modelRegistry","inputs":[],"outputs":[{"name":"","type":"address","internalType":"contract IModelRegistry"}],"stateMutability":"view"},{"type":"function","name":"nextRequestId","inputs":[],"outputs":[{"name":"","type":"uint256","internalType":"uint256"}],"stateMutability":"view"},{"type":"function","name":"nodeRegistry","inputs":[],"outputs":[{"name":"","type":"address","internalType":"contract INodeRegistry"}],"stateMutability":"view"},{"type":"function","name":"requestInference","inputs":[{"name":"modelId","type":"uint256","internalType":"uint256"},{"name":"durationMinutes","type":"uint256","internalType":"uint256"}],"outputs":[{"name":"","type":"uint256","internalType":"uint256"}],"stateMutability":"payable"},{"type":"function","name":"requests","inputs":[{"name":"","type":"uint256","internalType":"uint256"}],"outputs":[{"name":"user","type":"address","internalType":"address"},{"name":"modelId","type":"uint256","internalType":"uint256"},{"name":"paidAmount","type":"uint256","internalType":"uint256"},{"name":"expiresAt","type":"uint256","internalType":"uint256"},{"name":"fulfilled","type":"bool","internalType":"bool"}],"stateMutability":"view"},{"type":"function","name":"submitResult","inputs":[{"name":"requestId","type":"uint256","internalType":"uint256"}],"outputs":[],"stateMutability":"nonpayable"},{"type":"event","name":"InferenceFulfilled","inputs":[{"name":"requestId","type":"uint256","indexed":true,"internalType":"uint256"},{"name":"node","type":"address","indexed":true,"internalType":"address"}],"anonymous":false},{"type":"event","name":"InferenceRequested","inputs":[{"name":"requestId","type":"uint256","indexed":true,"internalType":"uint256"},{"name":"user","type":"address","indexed":true,"internalType":"address"},{"name":"modelId","type":"uint256","indexed":true,"internalType":"uint256"},{"name":"durationMinutes","type":"uint256","indexed":false,"internalType":"uint256"},{"name":"expiresAt","type":"uint256","indexed":false,"internalType":"uint256"}],"anonymous":false}],"bytecode":{"object":"0x608060405234801561000f575f80fd5b506040516109d03803806109d083398101604081905261002e91610079565b5f80546001600160a01b039384166001600160a01b031991821617909155600180549290931691161790556100aa565b80516001600160a01b0381168114610074575f80fd5b919050565b5f806040838503121561008a575f80fd5b6100938361005e565b91506100a16020840161005e565b90509250929050565b610919806100b75f395ff3fe608060405260043610610054575f3560e01c806321dc6429146100585780632ba36f78146100795780636109c226146100b55780636a84a985146100d657806381d12c58146100eb578063d9b5c4a514610175575b5f80fd5b348015610063575f80fd5b506100776100723660046106e9565b610193565b005b348015610084575f80fd5b50600154610098906001600160a01b031681565b6040516001600160a01b0390911681526020015b60405180910390f35b6100c86100c3366004610700565b6104e1565b6040519081526020016100ac565b3480156100e1575f80fd5b506100c860025481565b3480156100f6575f80fd5b506101416101053660046106e9565b600360208190525f9182526040909120805460018201546002830154938301546004909301546001600160a01b03909216939092909160ff1685565b604080516001600160a01b03909616865260208601949094529284019190915260608301521515608082015260a0016100ac565b348015610180575f80fd5b505f54610098906001600160a01b031681565b5f5460405163673448dd60e01b81523360048201526001600160a01b039091169063673448dd90602401602060405180830381865afa1580156101d8573d5f803e3d5ffd5b505050506040513d601f19601f820116820180604052508101906101fc9190610720565b6102415760405162461bcd60e51b81526020600482015260116024820152704e6f7420617070726f766564206e6f646560781b60448201526064015b60405180910390fd5b5f818152600360205260409020600481015460ff16156102975760405162461bcd60e51b8152602060048201526011602482015270105b1c9958591e48199d5b199a5b1b1959607a1b6044820152606401610238565b80600301544211156102dd5760405162461bcd60e51b815260206004820152600f60248201526e14995c5d595cdd08195e1c1a5c9959608a1b6044820152606401610238565b6004818101805460ff19166001908117909155805490830154604051631b4d85a560e21b8152928301525f916001600160a01b0390911690636d361694906024015f60405180830381865afa158015610338573d5f803e3d5ffd5b505050506040513d5f823e601f3d908101601f1916820160405261035f919081019061075a565b505090505f600283600201546103759190610858565b90505f8184600201546103889190610877565b6040519091505f90339084908381818185875af1925050503d805f81146103ca576040519150601f19603f3d011682016040523d82523d5f602084013e6103cf565b606091505b50509050806104165760405162461bcd60e51b8152602060048201526013602482015272139bd919481c185e5b595b9d0819985a5b1959606a1b6044820152606401610238565b5f846001600160a01b0316836040515f6040518083038185875af1925050503d805f811461045f576040519150601f19603f3d011682016040523d82523d5f602084013e610464565b606091505b50509050806104ac5760405162461bcd60e51b8152602060048201526014602482015273135bd9195b081c185e5b595b9d0819985a5b195960621b6044820152606401610238565b604051339088907fbba2d40ecb2d07cc463f1001ec1d291ecda8c19bbaaa3225958a7fea21fef5dd905f90a350505050505050565b5f8082116105245760405162461bcd60e51b815260206004820152601060248201526f24b73b30b634b210323ab930ba34b7b760811b6044820152606401610238565b60015460405163a17d76a960e01b8152600481018590525f916001600160a01b03169063a17d76a990602401602060405180830381865afa15801561056b573d5f803e3d5ffd5b505050506040513d601f19601f8201168201806040525081019061058f919061088a565b90505f61059c84836108a1565b90508034146105e15760405162461bcd60e51b8152602060048201526011602482015270125b98dbdc9c9958dd081c185e5b595b9d607a1b6044820152606401610238565b600280545f91826105f1836108b8565b9190505590506040518060a00160405280336001600160a01b0316815260200187815260200134815260200186603c61062a91906108a1565b61063490426108d0565b81525f60209182018190528381526003808352604091829020845181546001600160a01b0319166001600160a01b0390911617815584840151600182015584830151600282015560608501519181018290556080909401516004909401805460ff1916941515949094179093558051888152918201929092528791339184917f980404966e57ded5f0a1b7e848ae7ce10c2dac95f19374e84c5db57a93d49d01910160405180910390a4925050505b92915050565b5f602082840312156106f9575f80fd5b5035919050565b5f8060408385031215610711575f80fd5b50508035926020909101359150565b5f60208284031215610730575f80fd5b8151801515811461073f575f80fd5b9392505050565b634e487b7160e01b5f52604160045260245ffd5b5f805f6060848603121561076c575f80fd5b83516001600160a01b0381168114610782575f80fd5b809350506020808501519250604085015167ffffffffffffffff808211156107a8575f80fd5b818701915087601f8301126107bb575f80fd5b8151818111156107cd576107cd610746565b604051601f8201601f19908116603f011681019083821181831017156107f5576107f5610746565b816040528281528a8684870101111561080c575f80fd5b5f93505b8284101561082d5784840186015181850187015292850192610810565b5f8684830101528096505050505050509250925092565b634e487b7160e01b5f52601160045260245ffd5b5f8261087257634e487b7160e01b5f52601260045260245ffd5b500490565b818103818111156106e3576106e3610844565b5f6020828403121561089a575f80fd5b5051919050565b80820281158282048414176106e3576106e3610844565b5f600182016108c9576108c9610844565b5060010190565b808201808211156106e3576106e361084456fea26469706673582212200ed808e1dc6c226450a4144bc4bcce040818fefcf7f39206f79f9be8cad4636f64736f6c63430008140033","linkReferences":{}},"methodIdentifiers":{"modelRegistry()":"2ba36f78","nextRequestId()":"6a84a985","nodeRegistry()":"d9b5c4a5","requestInference(uint256,uint256)":"6109c226","requests(uint256)":"81d12c58","submitResult(uint256)":"21dc6429"},"id":0}