{"abi":[{"type":"constructor","inputs":[],"stateMutability":"nonpayable"},{"type":"function","name":"addNode","inputs":[{"name":"node","type":"address","internalType":"address"}],"outputs":[],"stateMutability":"nonpayable"},{"type":"function","name":"admin","inputs":[],"outputs":[{"name":"","type":"address","internalType":"address"}],"stateMutability":"view"},{"type":"function","name":"approvedNodes","inputs":[{"name":"","type":"address","internalType":"address"}],"outputs":[{"name":"","type":"bool","internalType":"bool"}],"stateMutability":"view"},{"type":"function","name":"isApproved","inputs":[{"name":"node","type":"address","internalType":"address"}],"outputs":[{"name":"","type":"bool","internalType":"bool"}],"stateMutability":"view"},{"type":"function","name":"removeNode","inputs":[{"name":"node","type":"address","internalType":"address"}],"outputs":[],"stateMutability":"nonpayable"},{"type":"event","name":"NodeAdded","inputs":[{"name":"node","type":"address","indexed":true,"internalType":"address"}],"anonymous":false},{"type":"event","name":"NodeRemoved","inputs":[{"name":"node","type":"address","indexed":true,"internalType":"address"}],"anonymous":false}],"bytecode":{"object":"0x6080604052348015600e575f5ffd5b50335f5f6101000a81548173ffffffffffffffffffffffffffffffffffffffff021916908373ffffffffffffffffffffffffffffffffffffffff16021790555061065a8061005b5f395ff3fe608060405234801561000f575f5ffd5b5060043610610055575f3560e01c8063673448dd14610059578063806ba4d2146100895780639d95f1cc146100b9578063b2b99ec9146100d5578063f851a440146100f1575b5f5ffd5b610073600480360381019061006e91906104be565b61010f565b6040516100809190610503565b60405180910390f35b6100a3600480360381019061009e91906104be565b610161565b6040516100b09190610503565b60405180910390f35b6100d360048036038101906100ce91906104be565b61017e565b005b6100ef60048036038101906100ea91906104be565b610314565b005b6100f961043c565b604051610106919061052b565b60405180910390f35b5f60015f8373ffffffffffffffffffffffffffffffffffffffff1673ffffffffffffffffffffffffffffffffffffffff1681526020019081526020015f205f9054906101000a900460ff169050919050565b6001602052805f5260405f205f915054906101000a900460ff1681565b5f5f9054906101000a900473ffffffffffffffffffffffffffffffffffffffff1673ffffffffffffffffffffffffffffffffffffffff163373ffffffffffffffffffffffffffffffffffffffff161461020c576040517f08c379a00000000000000000000000000000000000000000000000000000000081526004016102039061059e565b60405180910390fd5b5f73ffffffffffffffffffffffffffffffffffffffff168173ffffffffffffffffffffffffffffffffffffffff160361027a576040517f08c379a000000000000000000000000000000000000000000000000000000000815260040161027190610606565b60405180910390fd5b6001805f8373ffffffffffffffffffffffffffffffffffffffff1673ffffffffffffffffffffffffffffffffffffffff1681526020019081526020015f205f6101000a81548160ff0219169083151502179055508073ffffffffffffffffffffffffffffffffffffffff167fb25d03aaf308d7291709be1ea28b800463cf3a9a4c4a5555d7333a964c1dfebd60405160405180910390a250565b5f5f9054906101000a900473ffffffffffffffffffffffffffffffffffffffff1673ffffffffffffffffffffffffffffffffffffffff163373ffffffffffffffffffffffffffffffffffffffff16146103a2576040517f08c379a00000000000000000000000000000000000000000000000000000000081526004016103999061059e565b60405180910390fd5b5f60015f8373ffffffffffffffffffffffffffffffffffffffff1673ffffffffffffffffffffffffffffffffffffffff1681526020019081526020015f205f6101000a81548160ff0219169083151502179055508073ffffffffffffffffffffffffffffffffffffffff167fcfc24166db4bb677e857cacabd1541fb2b30645021b27c5130419589b84db52b60405160405180910390a250565b5f5f9054906101000a900473ffffffffffffffffffffffffffffffffffffffff1681565b5f5ffd5b5f73ffffffffffffffffffffffffffffffffffffffff82169050919050565b5f61048d82610464565b9050919050565b61049d81610483565b81146104a7575f5ffd5b50565b5f813590506104b881610494565b92915050565b5f602082840312156104d3576104d2610460565b5b5f6104e0848285016104aa565b91505092915050565b5f8115159050919050565b6104fd816104e9565b82525050565b5f6020820190506105165f8301846104f4565b92915050565b61052581610483565b82525050565b5f60208201905061053e5f83018461051c565b92915050565b5f82825260208201905092915050565b7f4e6f646552656769737472793a206e6f742061646d696e0000000000000000005f82015250565b5f610588601783610544565b915061059382610554565b602082019050919050565b5f6020820190508181035f8301526105b58161057c565b9050919050565b7f4e6f646552656769737472793a207a65726f20616464726573730000000000005f82015250565b5f6105f0601a83610544565b91506105fb826105bc565b602082019050919050565b5f6020820190508181035f83015261061d816105e4565b905091905056fea264697066735822122072515d03cfe6a026894d60d57dfae710a317edad6edb5cfa112a99eff086ffa464736f6c63430008210033","linkReferences":{}},"methodIdentifiers":{"addNode(address)":"9d95f1cc","admin()":"f851a440","approvedNodes(address)":"806ba4d2","isApproved(address)":"673448dd","removeNode(address)":"b2b99ec9"},"id":0}